{
  "_format": "hh-sol-artifact-1",
  "contractName": "QRC721",
  "sourceName": "contracts/QRC721.sol",
  "abi": [
    {
      "inputs": [
        {
          "internalType": "string",
          "name": "name_",
          "type": "string"
        },
        {
          "internalType": "string",
          "name": "symbol_",
          "type": "string"
        }
      ],
      "stateMutability": "nonpayable",
      "type": "constructor"
    },
    {
      "inputs": [
        {
          "internalType": "address",
          "name": "sender",
          "type": "address"
        },
        {
          "internalType": "uint256",
          "name": "tokenId",
          "type": "uint256"
        },
        {
          "internalType": "address",
          "name": "owner",
          "type": "address"
        }
      ],
      "name": "ERC721IncorrectOwner",
      "type": "error"
    },
    {
      "inputs": [
        {
          "internalType": "address",
          "name": "operator",
          "type": "address"
        },
        {
          "internalType": "uint256",
          "name": "tokenId",
          "type": "uint256"
        }
      ],
      "name": "ERC721InsufficientApproval",
      "type": "error"
    },
    {
      "inputs": [
        {
          "internalType": "address",
          "name": "approver",
          "type": "address"
        }
      ],
      "name": "ERC721InvalidApprover",
      "type": "error"
    },
    {
      "inputs": [
        {
          "internalType": "address",
          "name": "operator",
          "type": "address"
        }
      ],
      "name": "ERC721InvalidOperator",
      "type": "error"
    },
    {
      "inputs": [
        {
          "internalType": "address",
          "name": "owner",
          "type": "address"
        }
      ],
      "name": "ERC721InvalidOwner",
      "type": "error"
    },
    {
      "inputs": [
        {
          "internalType": "address",
          "name": "receiver",
          "type": "address"
        }
      ],
      "name": "ERC721InvalidReceiver",
      "type": "error"
    },
    {
      "inputs": [
        {
          "internalType": "address",
          "name": "sender",
          "type": "address"
        }
      ],
      "name": "ERC721InvalidSender",
      "type": "error"
    },
    {
      "inputs": [
        {
          "internalType": "uint256",
          "name": "tokenId",
          "type": "uint256"
        }
      ],
      "name": "ERC721NonexistentToken",
      "type": "error"
    },
    {
      "anonymous": false,
      "inputs": [
        {
          "indexed": true,
          "internalType": "address",
          "name": "owner",
          "type": "address"
        },
        {
          "indexed": true,
          "internalType": "address",
          "name": "approved",
          "type": "address"
        },
        {
          "indexed": true,
          "internalType": "uint256",
          "name": "tokenId",
          "type": "uint256"
        }
      ],
      "name": "Approval",
      "type": "event"
    },
    {
      "anonymous": false,
      "inputs": [
        {
          "indexed": true,
          "internalType": "address",
          "name": "owner",
          "type": "address"
        },
        {
          "indexed": true,
          "internalType": "address",
          "name": "operator",
          "type": "address"
        },
        {
          "indexed": false,
          "internalType": "bool",
          "name": "approved",
          "type": "bool"
        }
      ],
      "name": "ApprovalForAll",
      "type": "event"
    },
    {
      "anonymous": false,
      "inputs": [
        {
          "indexed": true,
          "internalType": "address",
          "name": "from",
          "type": "address"
        },
        {
          "indexed": true,
          "internalType": "address",
          "name": "to",
          "type": "address"
        },
        {
          "indexed": true,
          "internalType": "uint256",
          "name": "tokenId",
          "type": "uint256"
        }
      ],
      "name": "ExternalTransfer",
      "type": "event"
    },
    {
      "anonymous": false,
      "inputs": [
        {
          "indexed": true,
          "internalType": "address",
          "name": "from",
          "type": "address"
        },
        {
          "indexed": true,
          "internalType": "address",
          "name": "to",
          "type": "address"
        },
        {
          "indexed": true,
          "internalType": "uint256",
          "name": "tokenId",
          "type": "uint256"
        }
      ],
      "name": "Transfer",
      "type": "event"
    },
    {
      "inputs": [
        {
          "internalType": "uint8",
          "name": "chain",
          "type": "uint8"
        },
        {
          "internalType": "address",
          "name": "addr",
          "type": "address"
        }
      ],
      "name": "AddApprovedAddress",
      "outputs": [],
      "stateMutability": "nonpayable",
      "type": "function"
    },
    {
      "inputs": [
        {
          "internalType": "uint256",
          "name": "",
          "type": "uint256"
        }
      ],
      "name": "ApprovedAddresses",
      "outputs": [
        {
          "internalType": "address",
          "name": "",
          "type": "address"
        }
      ],
      "stateMutability": "view",
      "type": "function"
    },
    {
      "inputs": [
        {
          "internalType": "uint256",
          "name": "",
          "type": "uint256"
        }
      ],
      "name": "Ranges",
      "outputs": [
        {
          "internalType": "uint8",
          "name": "low",
          "type": "uint8"
        },
        {
          "internalType": "uint8",
          "name": "high",
          "type": "uint8"
        }
      ],
      "stateMutability": "view",
      "type": "function"
    },
    {
      "inputs": [
        {
          "internalType": "address",
          "name": "to",
          "type": "address"
        },
        {
          "internalType": "uint256",
          "name": "tokenId",
          "type": "uint256"
        }
      ],
      "name": "approve",
      "outputs": [],
      "stateMutability": "nonpayable",
      "type": "function"
    },
    {
      "inputs": [
        {
          "internalType": "address",
          "name": "owner",
          "type": "address"
        }
      ],
      "name": "balanceOf",
      "outputs": [
        {
          "internalType": "uint256",
          "name": "",
          "type": "uint256"
        }
      ],
      "stateMutability": "view",
      "type": "function"
    },
    {
      "inputs": [
        {
          "internalType": "address",
          "name": "from",
          "type": "address"
        },
        {
          "internalType": "address",
          "name": "to",
          "type": "address"
        },
        {
          "internalType": "uint256",
          "name": "tokenId",
          "type": "uint256"
        },
        {
          "internalType": "uint256",
          "name": "gasLimit",
          "type": "uint256"
        },
        {
          "internalType": "uint256",
          "name": "minerTip",
          "type": "uint256"
        },
        {
          "internalType": "uint256",
          "name": "baseFee",
          "type": "uint256"
        }
      ],
      "name": "crossChainTransfer",
      "outputs": [],
      "stateMutability": "payable",
      "type": "function"
    },
    {
      "inputs": [
        {
          "internalType": "address",
          "name": "addr",
          "type": "address"
        }
      ],
      "name": "getAddressLocation",
      "outputs": [
        {
          "internalType": "uint8",
          "name": "",
          "type": "uint8"
        }
      ],
      "stateMutability": "view",
      "type": "function"
    },
    {
      "inputs": [
        {
          "internalType": "uint256",
          "name": "tokenId",
          "type": "uint256"
        }
      ],
      "name": "getApproved",
      "outputs": [
        {
          "internalType": "address",
          "name": "",
          "type": "address"
        }
      ],
      "stateMutability": "view",
      "type": "function"
    },
    {
      "inputs": [
        {
          "internalType": "address",
          "name": "to",
          "type": "address"
        },
        {
          "internalType": "uint256",
          "name": "tokenId",
          "type": "uint256"
        }
      ],
      "name": "incomingTransfer",
      "outputs": [],
      "stateMutability": "nonpayable",
      "type": "function"
    },
    {
      "inputs": [
        {
          "internalType": "address",
          "name": "owner",
          "type": "address"
        },
        {
          "internalType": "address",
          "name": "operator",
          "type": "address"
        }
      ],
      "name": "isApprovedForAll",
      "outputs": [
        {
          "internalType": "bool",
          "name": "",
          "type": "bool"
        }
      ],
      "stateMutability": "view",
      "type": "function"
    },
    {
      "inputs": [],
      "name": "name",
      "outputs": [
        {
          "internalType": "string",
          "name": "",
          "type": "string"
        }
      ],
      "stateMutability": "view",
      "type": "function"
    },
    {
      "inputs": [
        {
          "internalType": "uint256",
          "name": "tokenId",
          "type": "uint256"
        }
      ],
      "name": "ownerOf",
      "outputs": [
        {
          "internalType": "address",
          "name": "",
          "type": "address"
        }
      ],
      "stateMutability": "view",
      "type": "function"
    },
    {
      "inputs": [
        {
          "internalType": "address",
          "name": "from",
          "type": "address"
        },
        {
          "internalType": "address",
          "name": "to",
          "type": "address"
        },
        {
          "internalType": "uint256",
          "name": "tokenId",
          "type": "uint256"
        }
      ],
      "name": "safeTransferFrom",
      "outputs": [],
      "stateMutability": "nonpayable",
      "type": "function"
    },
    {
      "inputs": [
        {
          "internalType": "address",
          "name": "from",
          "type": "address"
        },
        {
          "internalType": "address",
          "name": "to",
          "type": "address"
        },
        {
          "internalType": "uint256",
          "name": "tokenId",
          "type": "uint256"
        },
        {
          "internalType": "bytes",
          "name": "data",
          "type": "bytes"
        }
      ],
      "name": "safeTransferFrom",
      "outputs": [],
      "stateMutability": "nonpayable",
      "type": "function"
    },
    {
      "inputs": [
        {
          "internalType": "address",
          "name": "operator",
          "type": "address"
        },
        {
          "internalType": "bool",
          "name": "approved",
          "type": "bool"
        }
      ],
      "name": "setApprovalForAll",
      "outputs": [],
      "stateMutability": "nonpayable",
      "type": "function"
    },
    {
      "inputs": [],
      "name": "symbol",
      "outputs": [
        {
          "internalType": "string",
          "name": "",
          "type": "string"
        }
      ],
      "stateMutability": "view",
      "type": "function"
    },
    {
      "inputs": [
        {
          "internalType": "address",
          "name": "a",
          "type": "address"
        }
      ],
      "name": "toBytes",
      "outputs": [
        {
          "internalType": "bytes",
          "name": "",
          "type": "bytes"
        }
      ],
      "stateMutability": "pure",
      "type": "function"
    },
    {
      "inputs": [
        {
          "internalType": "uint256",
          "name": "tokenId",
          "type": "uint256"
        }
      ],
      "name": "tokenURI",
      "outputs": [
        {
          "internalType": "string",
          "name": "",
          "type": "string"
        }
      ],
      "stateMutability": "view",
      "type": "function"
    },
    {
      "inputs": [
        {
          "internalType": "address",
          "name": "from",
          "type": "address"
        },
        {
          "internalType": "address",
          "name": "to",
          "type": "address"
        },
        {
          "internalType": "uint256",
          "name": "tokenId",
          "type": "uint256"
        }
      ],
      "name": "transferFrom",
      "outputs": [],
      "stateMutability": "nonpayable",
      "type": "function"
    }
  ],
  "bytecode": "0x60806040523480156200001157600080fd5b5060405162002209380380620022098339810160408190526200003491620004c6565b6000620000428382620005be565b506001620000518282620005be565b50600280546001600160a01b031916339081179091556200007490600062000191565b505060408051808201825260008152601d602091820152600f8054611d0061ffff199182161790915582518084018452601e8152603a90830152601080548216613a1e17905582518084018452603b815260579083015260118054821661573b17905582518084018452605881526073908301526012805482166173581790558251808401845260748152608f90830152601380548216618f74179055825180840184526090815260ab9083015260148054821661ab901790558251808401845260ac815260c79083015260158054821661c7ac1790558251808401845260c8815260e39083015260168054821661e3c8179055825180840190935260e4835260ff92909101919091526017805490911661ffe41790556200068a565b6001600160a01b038216620001c157604051633250574960e11b8152600060048201526024015b60405180910390fd5b6000620001d083838362000204565b90506001600160a01b03811615620001ff576040516339e3563760e11b815260006004820152602401620001b8565b505050565b6000828152601c60205260408120546001600160a01b03908116908316156200023457620002348184866200030e565b6001600160a01b038116156200027f576000848152601e6020908152604080832080546001600160a01b03191690556001600160a01b0384168352601d909152902080546000190190555b6001600160a01b03851615620002af576001600160a01b0385166000908152601d60205260409020805460010190555b6000848152601c602052604080822080546001600160a01b0319166001600160a01b0389811691821790925591518793918516917fddf252ad1be2c89b69c2b068fc378daa952ba7f163c4a11628f55a4df523b3ef91a4949350505050565b6200031b83838362000378565b620001ff576001600160a01b0383166200034c57604051637e27328960e01b815260048101829052602401620001b8565b60405163177e802f60e01b81526001600160a01b038316600482015260248101829052604401620001b8565b60006001600160a01b03831615801590620003f95750826001600160a01b0316846001600160a01b03161480620003d457506001600160a01b038085166000908152601f602090815260408083209387168352929052205460ff165b80620003f957506000828152601e60205260409020546001600160a01b038481169116145b949350505050565b634e487b7160e01b600052604160045260246000fd5b600082601f8301126200042957600080fd5b81516001600160401b038082111562000446576200044662000401565b604051601f8301601f19908116603f0116810190828211818310171562000471576200047162000401565b816040528381526020925086838588010111156200048e57600080fd5b600091505b83821015620004b2578582018301518183018401529082019062000493565b600093810190920192909252949350505050565b60008060408385031215620004da57600080fd5b82516001600160401b0380821115620004f257600080fd5b620005008683870162000417565b935060208501519150808211156200051757600080fd5b50620005268582860162000417565b9150509250929050565b600181811c908216806200054557607f821691505b6020821081036200056657634e487b7160e01b600052602260045260246000fd5b50919050565b601f821115620001ff57600081815260208120601f850160051c81016020861015620005955750805b601f850160051c820191505b81811015620005b657828155600101620005a1565b505050505050565b81516001600160401b03811115620005da57620005da62000401565b620005f281620005eb845462000530565b846200056c565b602080601f8311600181146200062a5760008415620006115750858301515b600019600386901b1c1916600185901b178555620005b6565b600085815260208120601f198616915b828110156200065b578886015182559484019460019091019084016200063a565b50858210156200067a5787850151600019600388901b60f8161c191681555b5050505050600190811b01905550565b611b6f806200069a6000396000f3fe6080604052600436106101445760003560e01c80636352211e116100c0578063bc472aa311610074578063e20e50ba11610059578063e20e50ba146103ce578063e985e9c5146103ee578063f5adec881461044757600080fd5b8063bc472aa31461038e578063c87b56dd146103ae57600080fd5b806395d89b41116100a557806395d89b4114610339578063a22cb4651461034e578063b88d4fde1461036e57600080fd5b80636352211e146102eb57806370a082311461030b57600080fd5b806323b872dd1161011757806342842e0e116100fc57806342842e0e14610240578063429437bf14610260578063593b79fe1461029a57600080fd5b806323b872dd146101ee578063399444bc1461020e57600080fd5b806306fdde0314610149578063081812fc14610174578063095ea7b3146101ac57806320e8dd93146101ce575b600080fd5b34801561015557600080fd5b5061015e61045a565b60405161016b919061161c565b60405180910390f35b34801561018057600080fd5b5061019461018f36600461162f565b6104ec565b6040516001600160a01b03909116815260200161016b565b3480156101b857600080fd5b506101cc6101c7366004611664565b610516565b005b3480156101da57600080fd5b506101cc6101e9366004611664565b610526565b3480156101fa57600080fd5b506101cc61020936600461168e565b610651565b34801561021a57600080fd5b5061022e6102293660046116ca565b6106f5565b60405160ff909116815260200161016b565b34801561024c57600080fd5b506101cc61025b36600461168e565b61080c565b34801561026c57600080fd5b5061028061027b36600461162f565b610827565b6040805160ff93841681529290911660208301520161016b565b3480156102a657600080fd5b5061015e6102b53660046116ca565b604051606082811b6bffffffffffffffffffffffff19166020830152906034016040516020818303038152906040529050919050565b3480156102f757600080fd5b5061019461030636600461162f565b61084a565b34801561031757600080fd5b5061032b6103263660046116ca565b610883565b60405190815260200161016b565b34801561034557600080fd5b5061015e6108e4565b34801561035a57600080fd5b506101cc6103693660046116e5565b6108f3565b34801561037a57600080fd5b506101cc610389366004611737565b610902565b34801561039a57600080fd5b506101946103a936600461162f565b610919565b3480156103ba57600080fd5b5061015e6103c936600461162f565b610939565b3480156103da57600080fd5b506101cc6103e9366004611813565b6109d2565b3480156103fa57600080fd5b5061043761040936600461184e565b6001600160a01b039182166000908152601f6020908152604080832093909416825291909152205460ff1690565b604051901515815260200161016b565b6101cc61045536600461186a565b610ba0565b606060008054610469906118bf565b80601f0160208091040260200160405190810160405280929190818152602001828054610495906118bf565b80156104e25780601f106104b7576101008083540402835291602001916104e2565b820191906000526020600020905b8154815290600101906020018083116104c557829003601f168201915b5050505050905090565b60006104f782610f03565b6000828152601e60205260409020546001600160a01b03165b92915050565b610521828233610f3e565b505050565b336003610532826106f5565b60ff16600c8110610545576105456118f9565b01546040516bffffffffffffffffffffffff193360601b1660208201526001600160a01b03909116919091149060340160408051601f19818403018152908290526105929160200161190f565b604051602081830303815290604052906105c85760405162461bcd60e51b81526004016105bf919061161c565b60405180910390fd5b506001600160a01b038216156105f8576001600160a01b0382166000908152601d60205260409020805460010190555b6000818152601c602052604080822080546001600160a01b0319166001600160a01b03861690811790915590518392907fddf252ad1be2c89b69c2b068fc378daa952ba7f163c4a11628f55a4df523b3ef908290a45050565b6001600160a01b03821661067b57604051633250574960e11b8152600060048201526024016105bf565b6000610688838333611049565b9050836001600160a01b0316816001600160a01b0316146106ef576040517f64283d7b0000000000000000000000000000000000000000000000000000000081526001600160a01b03808616600483015260248201849052821660448201526064016105bf565b50505050565b604080516bffffffffffffffffffffffff19606084901b166020820152815160148183030181526034909101909152600090819060008151811061073b5761073b6118f9565b016020015160f81c905060005b60098160ff1610156107c357600f8160ff16600d811061076a5761076a6118f9565b015460ff908116908316108015906107a55750600f8160ff16600d8110610793576107936118f9565b015460ff610100909104811690831611155b156107b1579392505050565b806107bb81611991565b915050610748565b5060405162461bcd60e51b815260206004820152601060248201527f496e76616c6964204c6f636174696f6e0000000000000000000000000000000060448201526064016105bf565b61052183838360405180602001604052806000815250610902565b600f81600d811061083757600080fd5b015460ff80821692506101009091041682565b6000818152601c60205260408120546001600160a01b03168061051057604051637e27328960e01b8152600481018490526024016105bf565b60006001600160a01b0382166108c8576040517f89c62b64000000000000000000000000000000000000000000000000000000008152600060048201526024016105bf565b506001600160a01b03166000908152601d602052604090205490565b606060018054610469906118bf565b6108fe33838361114e565b5050565b61090d848484610651565b6106ef84848484611206565b600381600c811061092957600080fd5b01546001600160a01b0316905081565b606061094482610f03565b600061098060408051808201909152601281527f68747470733a2f2f71752e61692f6e66742f0000000000000000000000000000602082015290565b905060008151116109a057604051806020016040528060008152506109cb565b806109aa84611347565b6040516020016109bb9291906119b0565b6040516020818303038152906040525b9392505050565b80f78015610a225760405162461bcd60e51b815260206004820152601760248201527f41646472657373206973206e6f742065787465726e616c00000000000000000060448201526064016105bf565b6002546001600160a01b03163314610a7c5760405162461bcd60e51b815260206004820152601660248201527f53656e646572206973206e6f74206465706c6f7965720000000000000000000060448201526064016105bf565b60098360ff1610610acf5760405162461bcd60e51b815260206004820152600b60248201527f4d61782039207a6f6e657300000000000000000000000000000000000000000060448201526064016105bf565b6000600360ff8516600c8110610ae757610ae76118f9565b01546001600160a01b031614610b655760405162461bcd60e51b815260206004820152603160248201527f54686520617070726f766564206164647265737320666f722074686973207a6f60448201527f6e6520616c72656164792065786973747300000000000000000000000000000060648201526084016105bf565b8160038460ff16600c8110610b7c57610b7c6118f9565b0180546001600160a01b0319166001600160a01b0392909216919091179055505050565b84f78015610bf05760405162461bcd60e51b815260206004820152601760248201527f41646472657373206973206e6f742065787465726e616c00000000000000000060448201526064016105bf565b6001600160a01b0386161580610c0d57506001600160a01b038716155b15610c2e57604051633250574960e11b8152600060048201526024016105bf565b6000858152601c60205260409020546001600160a01b03888116911614610cbd5760405162461bcd60e51b815260206004820152602b60248201527f5472616e73666572206f6620746f6b656e2074686174206973206e6f74206f7760448201527f6e65642062792066726f6d00000000000000000000000000000000000000000060648201526084016105bf565b6001600160a01b0387163314610cd857610cd88733876113e7565b6000858152601e6020908152604080832080546001600160a01b03199081169091556001600160a01b038b168452601d83528184208054600019019055888452601c9092528220805490911690556003610d31886106f5565b60ff16600c8110610d4457610d446118f9565b01546001600160a01b0316905080610dc45760405162461bcd60e51b815260206004820152602f60248201527f546f6b656e206973206e6f7420617661696c61626c65206f6e2074686520646560448201527f7374696e6174696f6e20636861696e000000000000000000000000000000000060648201526084016105bf565b600085610dd186866119df565b610ddb91906119f2565b905080341015610dea82611347565b604051602001610dfa9190611a09565b60405160208183030381529060405290610e275760405162461bcd60e51b81526004016105bf919061161c565b506040516001600160a01b03891660248201526044810188905260009060640160408051601f198184030181529190526020810180517bffffffffffffffffffffffffffffffffffffffffffffffffffffffff167f20e8dd930000000000000000000000000000000000000000000000000000000017815281519192506000918291829190898b8d858b81f69050888a6001600160a01b03168c6001600160a01b03167fcf0ee562475620bbcd2f1b0675c8163317513271e4fdbbe9722436f247bd6d9960405160405180910390a45050505050505050505050565b6000818152601c60205260409020546001600160a01b0316610f3b57604051637e27328960e01b8152600481018290526024016105bf565b50565b600080610f4a8461084a565b90506001600160a01b03831615801590610f765750826001600160a01b0316816001600160a01b031614155b8015610fa857506001600160a01b038082166000908152601f602090815260408083209387168352929052205460ff16155b15610fea576040517fa9fbf51f0000000000000000000000000000000000000000000000000000000081526001600160a01b03841660048201526024016105bf565b6000848152601e602052604080822080546001600160a01b0319166001600160a01b0389811691821790925591518793918516917f8c5be1e5ebec7d5bd14f71427d1e84f3dd0314c0f7b2291e5b200ac8c7c3b92591a4949350505050565b6000828152601c60205260408120546001600160a01b0390811690831615611076576110768184866113e7565b6001600160a01b038116156110c0576000848152601e6020908152604080832080546001600160a01b03191690556001600160a01b0384168352601d909152902080546000190190555b6001600160a01b038516156110ef576001600160a01b0385166000908152601d60205260409020805460010190555b6000848152601c602052604080822080546001600160a01b0319166001600160a01b0389811691821790925591518793918516917fddf252ad1be2c89b69c2b068fc378daa952ba7f163c4a11628f55a4df523b3ef91a4949350505050565b6001600160a01b038216611199576040517f5b08ba180000000000000000000000000000000000000000000000000000000081526001600160a01b03831660048201526024016105bf565b6001600160a01b038381166000818152601f6020908152604080832094871680845294825291829020805460ff191686151590811790915591519182527f17307eab39ab6107e8899845ad3d59bd9653f200f220920489ca2b5937696c31910160405180910390a3505050565b6001600160a01b0383163b156106ef57604051630a85bd0160e11b81526001600160a01b0384169063150b7a0290611248903390889087908790600401611a9b565b6020604051808303816000875af1925050508015611283575060408051601f3d908101601f1916820190925261128091810190611ad7565b60015b6112ec573d8080156112b1576040519150601f19603f3d011682016040523d82523d6000602084013e6112b6565b606091505b5080516000036112e457604051633250574960e11b81526001600160a01b03851660048201526024016105bf565b805181602001fd5b7fffffffff000000000000000000000000000000000000000000000000000000008116630a85bd0160e11b1461134057604051633250574960e11b81526001600160a01b03851660048201526024016105bf565b5050505050565b6060600061135483611464565b600101905060008167ffffffffffffffff81111561137457611374611721565b6040519080825280601f01601f19166020018201604052801561139e576020820181803683370190505b5090508181016020015b600019017f3031323334353637383961626364656600000000000000000000000000000000600a86061a8153600a85049450846113a857509392505050565b6113f2838383611546565b610521576001600160a01b03831661142057604051637e27328960e01b8152600481018290526024016105bf565b6040517f177e802f0000000000000000000000000000000000000000000000000000000081526001600160a01b0383166004820152602481018290526044016105bf565b6000807a184f03e93ff9f4daa797ed6e38ed64bf6a1f01000000000000000083106114ad577a184f03e93ff9f4daa797ed6e38ed64bf6a1f010000000000000000830492506040015b6d04ee2d6d415b85acef810000000083106114d9576d04ee2d6d415b85acef8100000000830492506020015b662386f26fc1000083106114f757662386f26fc10000830492506010015b6305f5e100831061150f576305f5e100830492506008015b612710831061152357612710830492506004015b60648310611535576064830492506002015b600a83106105105760010192915050565b60006001600160a01b038316158015906115c45750826001600160a01b0316846001600160a01b031614806115a057506001600160a01b038085166000908152601f602090815260408083209387168352929052205460ff165b806115c457506000828152601e60205260409020546001600160a01b038481169116145b949350505050565b60005b838110156115e75781810151838201526020016115cf565b50506000910152565b600081518084526116088160208601602086016115cc565b601f01601f19169290920160200192915050565b6020815260006109cb60208301846115f0565b60006020828403121561164157600080fd5b5035919050565b80356001600160a01b038116811461165f57600080fd5b919050565b6000806040838503121561167757600080fd5b61168083611648565b946020939093013593505050565b6000806000606084860312156116a357600080fd5b6116ac84611648565b92506116ba60208501611648565b9150604084013590509250925092565b6000602082840312156116dc57600080fd5b6109cb82611648565b600080604083850312156116f857600080fd5b61170183611648565b91506020830135801515811461171657600080fd5b809150509250929050565b634e487b7160e01b600052604160045260246000fd5b6000806000806080858703121561174d57600080fd5b61175685611648565b935061176460208601611648565b925060408501359150606085013567ffffffffffffffff8082111561178857600080fd5b818701915087601f83011261179c57600080fd5b8135818111156117ae576117ae611721565b604051601f8201601f19908116603f011681019083821181831017156117d6576117d6611721565b816040528281528a60208487010111156117ef57600080fd5b82602086016020830137600060208483010152809550505050505092959194509250565b6000806040838503121561182657600080fd5b823560ff8116811461183757600080fd5b915061184560208401611648565b90509250929050565b6000806040838503121561186157600080fd5b61183783611648565b60008060008060008060c0878903121561188357600080fd5b61188c87611648565b955061189a60208801611648565b95989597505050506040840135936060810135936080820135935060a0909101359150565b600181811c908216806118d357607f821691505b6020821081036118f357634e487b7160e01b600052602260045260246000fd5b50919050565b634e487b7160e01b600052603260045260246000fd5b7f53656e64657220000000000000000000000000000000000000000000000000008152600082516119478160078501602087016115cc565b7f206e6f7420617070726f766564000000000000000000000000000000000000006007939091019283015250601401919050565b634e487b7160e01b600052601160045260246000fd5b600060ff821660ff81036119a7576119a761197b565b60010192915050565b600083516119c28184602088016115cc565b8351908301906119d68183602088016115cc565b01949350505050565b808201808211156105105761051061197b565b80820281158282048414176105105761051061197b565b7f4e6f7420656e6f756768206761732073656e742c206e656564206174206c656181527f7374200000000000000000000000000000000000000000000000000000000000602082015260008251611a678160238501602087016115cc565b7f20776569000000000000000000000000000000000000000000000000000000006023939091019283015250602701919050565b60006001600160a01b03808716835280861660208401525083604083015260806060830152611acd60808301846115f0565b9695505050505050565b600060208284031215611ae957600080fd5b81517fffffffff00000000000000000000000000000000000000000000000000000000811681146109cb57600080fdfea2646970667358221220203b786f529f18400c425df63bbb3acda0c10f8c7df39e62d081831e2d8b367864736f6c637822302e382e31392d646576656c6f702b636f6d6d69742e63383866343066642e6d6f640053",
  "linkReferences": {},
  "deployedLinkReferences": {}
}