{
	"_format": "hh-sol-artifact-1",
	"contractName": "QRC20",
	"sourceName": "contracts/QRC20.sol",
	"abi": [
		{
			"inputs": [
				{
					"internalType": "string",
					"name": "name_",
					"type": "string"
				},
				{
					"internalType": "string",
					"name": "symbol_",
					"type": "string"
				},
				{
					"internalType": "uint256",
					"name": "initialSupply_",
					"type": "uint256"
				}
			],
			"stateMutability": "nonpayable",
			"type": "constructor"
		},
		{
			"anonymous": false,
			"inputs": [
				{
					"indexed": true,
					"internalType": "address",
					"name": "owner",
					"type": "address"
				},
				{
					"indexed": true,
					"internalType": "address",
					"name": "spender",
					"type": "address"
				},
				{
					"indexed": false,
					"internalType": "uint256",
					"name": "value",
					"type": "uint256"
				}
			],
			"name": "Approval",
			"type": "event"
		},
		{
			"anonymous": false,
			"inputs": [
				{
					"indexed": true,
					"internalType": "address",
					"name": "from",
					"type": "address"
				},
				{
					"indexed": true,
					"internalType": "address",
					"name": "to",
					"type": "address"
				},
				{
					"indexed": false,
					"internalType": "uint256",
					"name": "value",
					"type": "uint256"
				}
			],
			"name": "ExternalTransfer",
			"type": "event"
		},
		{
			"anonymous": false,
			"inputs": [
				{
					"indexed": true,
					"internalType": "address",
					"name": "from",
					"type": "address"
				},
				{
					"indexed": true,
					"internalType": "address",
					"name": "to",
					"type": "address"
				},
				{
					"indexed": false,
					"internalType": "uint256",
					"name": "value",
					"type": "uint256"
				}
			],
			"name": "Transfer",
			"type": "event"
		},
		{
			"inputs": [
				{
					"internalType": "uint8",
					"name": "chain",
					"type": "uint8"
				},
				{
					"internalType": "address",
					"name": "addr",
					"type": "address"
				}
			],
			"name": "AddApprovedAddress",
			"outputs": [],
			"stateMutability": "nonpayable",
			"type": "function"
		},
		{
			"inputs": [
				{
					"internalType": "uint8[]",
					"name": "chain",
					"type": "uint8[]"
				},
				{
					"internalType": "address[]",
					"name": "addr",
					"type": "address[]"
				}
			],
			"name": "AddApprovedAddresses",
			"outputs": [],
			"stateMutability": "nonpayable",
			"type": "function"
		},
		{
			"inputs": [
				{
					"internalType": "uint256",
					"name": "",
					"type": "uint256"
				}
			],
			"name": "ApprovedAddresses",
			"outputs": [
				{
					"internalType": "address",
					"name": "",
					"type": "address"
				}
			],
			"stateMutability": "view",
			"type": "function"
		},
		{
			"inputs": [
				{
					"internalType": "uint256",
					"name": "",
					"type": "uint256"
				}
			],
			"name": "Ranges",
			"outputs": [
				{
					"internalType": "uint8",
					"name": "low",
					"type": "uint8"
				},
				{
					"internalType": "uint8",
					"name": "high",
					"type": "uint8"
				}
			],
			"stateMutability": "view",
			"type": "function"
		},
		{
			"inputs": [
				{
					"internalType": "address",
					"name": "owner",
					"type": "address"
				},
				{
					"internalType": "address",
					"name": "spender",
					"type": "address"
				}
			],
			"name": "allowance",
			"outputs": [
				{
					"internalType": "uint256",
					"name": "",
					"type": "uint256"
				}
			],
			"stateMutability": "view",
			"type": "function"
		},
		{
			"inputs": [
				{
					"internalType": "address",
					"name": "spender",
					"type": "address"
				},
				{
					"internalType": "uint256",
					"name": "amount",
					"type": "uint256"
				}
			],
			"name": "approve",
			"outputs": [
				{
					"internalType": "bool",
					"name": "",
					"type": "bool"
				}
			],
			"stateMutability": "nonpayable",
			"type": "function"
		},
		{
			"inputs": [
				{
					"internalType": "address",
					"name": "account",
					"type": "address"
				}
			],
			"name": "balanceOf",
			"outputs": [
				{
					"internalType": "uint256",
					"name": "",
					"type": "uint256"
				}
			],
			"stateMutability": "view",
			"type": "function"
		},
		{
			"inputs": [
				{
					"internalType": "address",
					"name": "to",
					"type": "address"
				},
				{
					"internalType": "uint256",
					"name": "amount",
					"type": "uint256"
				},
				{
					"internalType": "uint256",
					"name": "gasLimit",
					"type": "uint256"
				},
				{
					"internalType": "uint256",
					"name": "minerTip",
					"type": "uint256"
				},
				{
					"internalType": "uint256",
					"name": "baseFee",
					"type": "uint256"
				}
			],
			"name": "crossChainTransfer",
			"outputs": [],
			"stateMutability": "payable",
			"type": "function"
		},
		{
			"inputs": [],
			"name": "decimals",
			"outputs": [
				{
					"internalType": "uint8",
					"name": "",
					"type": "uint8"
				}
			],
			"stateMutability": "view",
			"type": "function"
		},
		{
			"inputs": [
				{
					"internalType": "address",
					"name": "spender",
					"type": "address"
				},
				{
					"internalType": "uint256",
					"name": "subtractedValue",
					"type": "uint256"
				}
			],
			"name": "decreaseAllowance",
			"outputs": [
				{
					"internalType": "bool",
					"name": "",
					"type": "bool"
				}
			],
			"stateMutability": "nonpayable",
			"type": "function"
		},
		{
			"inputs": [
				{
					"internalType": "address",
					"name": "addr",
					"type": "address"
				}
			],
			"name": "getAddressLocation",
			"outputs": [
				{
					"internalType": "uint8",
					"name": "",
					"type": "uint8"
				}
			],
			"stateMutability": "view",
			"type": "function"
		},
		{
			"inputs": [
				{
					"internalType": "address",
					"name": "to",
					"type": "address"
				},
				{
					"internalType": "uint256",
					"name": "amount",
					"type": "uint256"
				}
			],
			"name": "incomingTransfer",
			"outputs": [],
			"stateMutability": "nonpayable",
			"type": "function"
		},
		{
			"inputs": [
				{
					"internalType": "address",
					"name": "spender",
					"type": "address"
				},
				{
					"internalType": "uint256",
					"name": "addedValue",
					"type": "uint256"
				}
			],
			"name": "increaseAllowance",
			"outputs": [
				{
					"internalType": "bool",
					"name": "",
					"type": "bool"
				}
			],
			"stateMutability": "nonpayable",
			"type": "function"
		},
		{
			"inputs": [],
			"name": "name",
			"outputs": [
				{
					"internalType": "string",
					"name": "",
					"type": "string"
				}
			],
			"stateMutability": "view",
			"type": "function"
		},
		{
			"inputs": [],
			"name": "symbol",
			"outputs": [
				{
					"internalType": "string",
					"name": "",
					"type": "string"
				}
			],
			"stateMutability": "view",
			"type": "function"
		},
		{
			"inputs": [
				{
					"internalType": "address",
					"name": "a",
					"type": "address"
				}
			],
			"name": "toBytes",
			"outputs": [
				{
					"internalType": "bytes",
					"name": "",
					"type": "bytes"
				}
			],
			"stateMutability": "pure",
			"type": "function"
		},
		{
			"inputs": [],
			"name": "totalSupply",
			"outputs": [
				{
					"internalType": "uint256",
					"name": "",
					"type": "uint256"
				}
			],
			"stateMutability": "view",
			"type": "function"
		},
		{
			"inputs": [
				{
					"internalType": "address",
					"name": "to",
					"type": "address"
				},
				{
					"internalType": "uint256",
					"name": "amount",
					"type": "uint256"
				}
			],
			"name": "transfer",
			"outputs": [
				{
					"internalType": "bool",
					"name": "",
					"type": "bool"
				}
			],
			"stateMutability": "nonpayable",
			"type": "function"
		},
		{
			"inputs": [
				{
					"internalType": "address",
					"name": "from",
					"type": "address"
				},
				{
					"internalType": "address",
					"name": "to",
					"type": "address"
				},
				{
					"internalType": "uint256",
					"name": "amount",
					"type": "uint256"
				}
			],
			"name": "transferFrom",
			"outputs": [
				{
					"internalType": "bool",
					"name": "",
					"type": "bool"
				}
			],
			"stateMutability": "nonpayable",
			"type": "function"
		}
	],
	"bytecode": "0x60806040523480156200001157600080fd5b506040516200218038038062002180833981016040819052620000349162000327565b600f62000042848262000428565b50601062000051838262000428565b50601180546001600160a01b03191633908117909155600e548291620000779162000197565b505060408051808201825260008152601d60209182015260128054611d0061ffff199182161790915582518084018452601e8152603a90830152601380548216613a1e17905582518084018452603b815260579083015260148054821661573b17905582518084018452605881526073908301526015805482166173581790558251808401845260748152608f90830152601680548216618f74179055825180840184526090815260ab9083015260178054821661ab901790558251808401845260ac815260c79083015260188054821661c7ac1790558251808401845260c8815260e39083015260198054821661e3c8179055825180840190935260e4835260ff9290910191909152601a805490911661ffe4179055506200051c9050565b6001600160a01b038216620001f25760405162461bcd60e51b815260206004820152601f60248201527f45524332303a206d696e7420746f20746865207a65726f206164647265737300604482015260640160405180910390fd5b80600e6000828254620002069190620004f4565b90915550506001600160a01b038216600081815260208181526040808320805486019055518481527fddf252ad1be2c89b69c2b068fc378daa952ba7f163c4a11628f55a4df523b3ef910160405180910390a35050565b505050565b634e487b7160e01b600052604160045260246000fd5b600082601f8301126200028a57600080fd5b81516001600160401b0380821115620002a757620002a762000262565b604051601f8301601f19908116603f01168101908282118183101715620002d257620002d262000262565b81604052838152602092508683858801011115620002ef57600080fd5b600091505b83821015620003135785820183015181830184015290820190620002f4565b600093810190920192909252949350505050565b6000806000606084860312156200033d57600080fd5b83516001600160401b03808211156200035557600080fd5b620003638783880162000278565b945060208601519150808211156200037a57600080fd5b50620003898682870162000278565b925050604084015190509250925092565b600181811c90821680620003af57607f821691505b602082108103620003d057634e487b7160e01b600052602260045260246000fd5b50919050565b601f8211156200025d57600081815260208120601f850160051c81016020861015620003ff5750805b601f850160051c820191505b8181101562000420578281556001016200040b565b505050505050565b81516001600160401b0381111562000444576200044462000262565b6200045c816200045584546200039a565b84620003d6565b602080601f8311600181146200049457600084156200047b5750858301515b600019600386901b1c1916600185901b17855562000420565b600085815260208120601f198616915b82811015620004c557888601518255948401946001909101908401620004a4565b5085821015620004e45787850151600019600388901b60f8161c191681555b5050505050600190811b01905550565b808201808211156200051657634e487b7160e01b600052601160045260246000fd5b92915050565b611c54806200052c6000396000f3fe6080604052600436106101445760003560e01c8063593b79fe116100c0578063a534d9de11610074578063bc472aa311610059578063bc472aa3146103b0578063dd62ed3e146103e8578063e20e50ba1461042e57600080fd5b8063a534d9de14610370578063a9059cbb1461039057600080fd5b806373cddab2116100a557806373cddab21461032857806395d89b411461033b578063a457c2d71461035057600080fd5b8063593b79fe146102a157806370a08231146102f257600080fd5b806323b872dd1161011757806339509351116100fc5780633950935114610227578063399444bc14610247578063429437bf1461026757600080fd5b806323b872dd146101e5578063313ce5671461020557600080fd5b806306fdde0314610149578063095ea7b31461017457806318160ddd146101a457806320e8dd93146101c3575b600080fd5b34801561015557600080fd5b5061015e61044e565b60405161016b919061178f565b60405180910390f35b34801561018057600080fd5b5061019461018f3660046117c5565b6104e0565b604051901515815260200161016b565b3480156101b057600080fd5b50600e545b60405190815260200161016b565b3480156101cf57600080fd5b506101e36101de3660046117c5565b6104f7565b005b3480156101f157600080fd5b506101946102003660046117ef565b6105a8565b34801561021157600080fd5b5060125b60405160ff909116815260200161016b565b34801561023357600080fd5b506101946102423660046117c5565b6105ca565b34801561025357600080fd5b5061021561026236600461182b565b610609565b34801561027357600080fd5b50610287610282366004611846565b610720565b6040805160ff93841681529290911660208301520161016b565b3480156102ad57600080fd5b5061015e6102bc36600461182b565b604051606082811b6bffffffffffffffffffffffff19166020830152906034016040516020818303038152906040529050919050565b3480156102fe57600080fd5b506101b561030d36600461182b565b6001600160a01b031660009081526020819052604090205490565b6101e361033636600461185f565b610743565b34801561034757600080fd5b5061015e610987565b34801561035c57600080fd5b5061019461036b3660046117c5565b610996565b34801561037c57600080fd5b506101e361038b3660046118ed565b610a4b565b34801561039c57600080fd5b506101946103ab3660046117c5565b610cff565b3480156103bc57600080fd5b506103d06103cb366004611846565b610d0c565b6040516001600160a01b03909116815260200161016b565b3480156103f457600080fd5b506101b5610403366004611959565b6001600160a01b03918216600090815260016020908152604080832093909416825291909152205490565b34801561043a57600080fd5b506101e361044936600461199d565b610d2c565b6060600f805461045d906119b9565b80601f0160208091040260200160405190810160405280929190818152602001828054610489906119b9565b80156104d65780601f106104ab576101008083540402835291602001916104d6565b820191906000526020600020905b8154815290600101906020018083116104b957829003601f168201915b5050505050905090565b60006104ed338484610ef5565b5060015b92915050565b33600261050382610609565b60ff16600c8110610516576105166119f3565b01546040516bffffffffffffffffffffffff193360601b1660208201526001600160a01b03909116919091149060340160408051601f198184030181529082905261056391602001611a09565b604051602081830303815290604052906105995760405162461bcd60e51b8152600401610590919061178f565b60405180910390fd5b506105a482826110c3565b5050565b60006105b5843384611182565b6105c0848484611214565b5060019392505050565b3360008181526001602090815260408083206001600160a01b03871684529091528120549091906105c09082908690610604908790611a8b565b610ef5565b604080516bffffffffffffffffffffffff19606084901b166020820152815160148183030181526034909101909152600090819060008151811061064f5761064f6119f3565b016020015160f81c905060005b60098160ff1610156106d75760128160ff16600d811061067e5761067e6119f3565b015460ff908116908316108015906106b9575060128160ff16600d81106106a7576106a76119f3565b015460ff610100909104811690831611155b156106c5579392505050565b806106cf81611a9e565b91505061065c565b5060405162461bcd60e51b815260206004820152601060248201527f496e76616c6964204c6f636174696f6e000000000000000000000000000000006044820152606401610590565b601281600d811061073057600080fd5b015460ff80821692506101009091041682565b84f780156107935760405162461bcd60e51b815260206004820152601760248201527f41646472657373206973206e6f742065787465726e616c0000000000000000006044820152606401610590565b61079d3386611476565b600060026107aa88610609565b60ff16600c81106107bd576107bd6119f3565b01546001600160a01b031690508061083d5760405162461bcd60e51b815260206004820152602f60248201527f546f6b656e206973206e6f7420617661696c61626c65206f6e2074686520646560448201527f7374696e6174696f6e20636861696e00000000000000000000000000000000006064820152608401610590565b60008561084a8686611a8b565b6108549190611abd565b905080341015610863826115df565b6040516020016108739190611ad4565b604051602081830303815290604052906108a05760405162461bcd60e51b8152600401610590919061178f565b506040516001600160a01b03891660248201526044810188905260009060640160408051601f198184030181529190526020810180517bffffffffffffffffffffffffffffffffffffffffffffffffffffffff167f20e8dd930000000000000000000000000000000000000000000000000000000017815281519192506000918291829190898b8d858b81f69050896001600160a01b0316336001600160a01b03167fcf0ee562475620bbcd2f1b0675c8163317513271e4fdbbe9722436f247bd6d998b60405161097391815260200190565b60405180910390a350505050505050505050565b60606010805461045d906119b9565b3360008181526001602090815260408083206001600160a01b038716845290915281205490919083811015610a335760405162461bcd60e51b815260206004820152602560248201527f45524332303a2064656372656173656420616c6c6f77616e63652062656c6f7760448201527f207a65726f0000000000000000000000000000000000000000000000000000006064820152608401610590565b610a408286868403610ef5565b506001949350505050565b6011546001600160a01b03163314610aa55760405162461bcd60e51b815260206004820152601660248201527f53656e646572206973206e6f74206465706c6f796572000000000000000000006044820152606401610590565b828114610b1a5760405162461bcd60e51b815260206004820152603060248201527f636861696e20616e64206164647265737320617272617973206d75737420626560448201527f207468652073616d65206c656e677468000000000000000000000000000000006064820152608401610590565b60005b60ff8116841115610cf857600985858360ff16818110610b3f57610b3f6119f3565b9050602002016020810190610b549190611b66565b60ff1610610b925760405162461bcd60e51b815260206004820152600b60248201526a4d61782039207a6f6e657360a81b6044820152606401610590565b60006002868660ff8516818110610bab57610bab6119f3565b9050602002016020810190610bc09190611b66565b60ff16600c8110610bd357610bd36119f3565b01546001600160a01b031614610c515760405162461bcd60e51b815260206004820152603160248201527f54686520617070726f766564206164647265737320666f722074686973207a6f60448201527f6e6520616c7265616479206578697374730000000000000000000000000000006064820152608401610590565b82828260ff16818110610c6657610c666119f3565b9050602002016020810190610c7b919061182b565b600286868460ff16818110610c9257610c926119f3565b9050602002016020810190610ca79190611b66565b60ff16600c8110610cba57610cba6119f3565b01805473ffffffffffffffffffffffffffffffffffffffff19166001600160a01b039290921691909117905580610cf081611a9e565b915050610b1d565b5050505050565b60006104ed338484611214565b600281600c8110610d1c57600080fd5b01546001600160a01b0316905081565b80f78015610d7c5760405162461bcd60e51b815260206004820152601760248201527f41646472657373206973206e6f742065787465726e616c0000000000000000006044820152606401610590565b6011546001600160a01b03163314610dd65760405162461bcd60e51b815260206004820152601660248201527f53656e646572206973206e6f74206465706c6f796572000000000000000000006044820152606401610590565b60098360ff1610610e175760405162461bcd60e51b815260206004820152600b60248201526a4d61782039207a6f6e657360a81b6044820152606401610590565b6000600260ff8516600c8110610e2f57610e2f6119f3565b01546001600160a01b031614610ead5760405162461bcd60e51b815260206004820152603160248201527f54686520617070726f766564206164647265737320666f722074686973207a6f60448201527f6e6520616c7265616479206578697374730000000000000000000000000000006064820152608401610590565b8160028460ff16600c8110610ec457610ec46119f3565b01805473ffffffffffffffffffffffffffffffffffffffff19166001600160a01b0392909216919091179055505050565b81f780610f6a5760405162461bcd60e51b815260206004820152603f60248201527f5370656e64657220616464726573732069732065787465726e616c2e2055736560448201527f2063726f73732d636861696e207472616e736665722066756e6374696f6e2e006064820152608401610590565b6001600160a01b038416610fe55760405162461bcd60e51b8152602060048201526024808201527f45524332303a20617070726f76652066726f6d20746865207a65726f2061646460448201527f72657373000000000000000000000000000000000000000000000000000000006064820152608401610590565b6001600160a01b0383166110615760405162461bcd60e51b815260206004820152602260248201527f45524332303a20617070726f766520746f20746865207a65726f20616464726560448201527f73730000000000000000000000000000000000000000000000000000000000006064820152608401610590565b6001600160a01b0384811660008181526001602090815260408083209488168084529482529182902086905590518581527f8c5be1e5ebec7d5bd14f71427d1e84f3dd0314c0f7b2291e5b200ac8c7c3b925910160405180910390a350505050565b6001600160a01b0382166111195760405162461bcd60e51b815260206004820152601f60248201527f45524332303a206d696e7420746f20746865207a65726f2061646472657373006044820152606401610590565b80600e600082825461112b9190611a8b565b90915550506001600160a01b038216600081815260208181526040808320805486019055518481527fddf252ad1be2c89b69c2b068fc378daa952ba7f163c4a11628f55a4df523b3ef910160405180910390a35050565b6001600160a01b03838116600090815260016020908152604080832093861683529290522054600019811461120e57818110156112015760405162461bcd60e51b815260206004820152601d60248201527f45524332303a20696e73756666696369656e7420616c6c6f77616e63650000006044820152606401610590565b61120e8484848403610ef5565b50505050565b81f7806112895760405162461bcd60e51b815260206004820152603760248201527f416464726573732069732065787465726e616c2e205573652063726f73732d6360448201527f6861696e207472616e736665722066756e6374696f6e2e0000000000000000006064820152608401610590565b6001600160a01b0384166113055760405162461bcd60e51b815260206004820152602560248201527f45524332303a207472616e736665722066726f6d20746865207a65726f20616460448201527f64726573730000000000000000000000000000000000000000000000000000006064820152608401610590565b6001600160a01b0383166113815760405162461bcd60e51b815260206004820152602360248201527f45524332303a207472616e7366657220746f20746865207a65726f206164647260448201527f65737300000000000000000000000000000000000000000000000000000000006064820152608401610590565b6001600160a01b038416600090815260208190526040902054828110156114105760405162461bcd60e51b815260206004820152602660248201527f45524332303a207472616e7366657220616d6f756e742065786365656473206260448201527f616c616e636500000000000000000000000000000000000000000000000000006064820152608401610590565b6001600160a01b03858116600081815260208181526040808320888703905593881680835291849020805488019055925186815290927fddf252ad1be2c89b69c2b068fc378daa952ba7f163c4a11628f55a4df523b3ef910160405180910390a3610cf8565b6001600160a01b0382166114f25760405162461bcd60e51b815260206004820152602160248201527f45524332303a206275726e2066726f6d20746865207a65726f2061646472657360448201527f73000000000000000000000000000000000000000000000000000000000000006064820152608401610590565b6001600160a01b038216600090815260208190526040902054818110156115815760405162461bcd60e51b815260206004820152602260248201527f45524332303a206275726e20616d6f756e7420657863656564732062616c616e60448201527f63650000000000000000000000000000000000000000000000000000000000006064820152608401610590565b6001600160a01b0383166000818152602081815260408083208686039055600e80548790039055518581529192917fddf252ad1be2c89b69c2b068fc378daa952ba7f163c4a11628f55a4df523b3ef910160405180910390a3505050565b60608160000361162257505060408051808201909152600181527f3000000000000000000000000000000000000000000000000000000000000000602082015290565b8160005b811561164c578061163681611b81565b91506116459050600a83611b9a565b9150611626565b60008167ffffffffffffffff81111561166757611667611bbc565b6040519080825280601f01601f191660200182016040528015611691576020820181803683370190505b509050815b8515611736576116a7600182611bd2565b905060006116b6600a88611b9a565b6116c190600a611abd565b6116cb9088611bd2565b6116d6906030611be5565b905060008160f81b9050808484815181106116f3576116f36119f3565b60200101907effffffffffffffffffffffffffffffffffffffffffffffffffffffffffffff1916908160001a90535061172d600a89611b9a565b97505050611696565b50949350505050565b60005b8381101561175a578181015183820152602001611742565b50506000910152565b6000815180845261177b81602086016020860161173f565b601f01601f19169290920160200192915050565b6020815260006117a26020830184611763565b9392505050565b80356001600160a01b03811681146117c057600080fd5b919050565b600080604083850312156117d857600080fd5b6117e1836117a9565b946020939093013593505050565b60008060006060848603121561180457600080fd5b61180d846117a9565b925061181b602085016117a9565b9150604084013590509250925092565b60006020828403121561183d57600080fd5b6117a2826117a9565b60006020828403121561185857600080fd5b5035919050565b600080600080600060a0868803121561187757600080fd5b611880866117a9565b97602087013597506040870135966060810135965060800135945092505050565b60008083601f8401126118b357600080fd5b50813567ffffffffffffffff8111156118cb57600080fd5b6020830191508360208260051b85010111156118e657600080fd5b9250929050565b6000806000806040858703121561190357600080fd5b843567ffffffffffffffff8082111561191b57600080fd5b611927888389016118a1565b9096509450602087013591508082111561194057600080fd5b5061194d878288016118a1565b95989497509550505050565b6000806040838503121561196c57600080fd5b611975836117a9565b9150611983602084016117a9565b90509250929050565b803560ff811681146117c057600080fd5b600080604083850312156119b057600080fd5b6119758361198c565b600181811c908216806119cd57607f821691505b6020821081036119ed57634e487b7160e01b600052602260045260246000fd5b50919050565b634e487b7160e01b600052603260045260246000fd5b7f53656e6465722000000000000000000000000000000000000000000000000000815260008251611a4181600785016020870161173f565b7f206e6f7420617070726f766564000000000000000000000000000000000000006007939091019283015250601401919050565b634e487b7160e01b600052601160045260246000fd5b808201808211156104f1576104f1611a75565b600060ff821660ff8103611ab457611ab4611a75565b60010192915050565b80820281158282048414176104f1576104f1611a75565b7f4e6f7420656e6f756768206761732073656e742c206e656564206174206c656181527f7374200000000000000000000000000000000000000000000000000000000000602082015260008251611b3281602385016020870161173f565b7f20776569000000000000000000000000000000000000000000000000000000006023939091019283015250602701919050565b600060208284031215611b7857600080fd5b6117a28261198c565b600060018201611b9357611b93611a75565b5060010190565b600082611bb757634e487b7160e01b600052601260045260246000fd5b500490565b634e487b7160e01b600052604160045260246000fd5b818103818111156104f1576104f1611a75565b60ff81811683821601908111156104f1576104f1611a7556fea264697066735822122009151aecf89c90da7fcc397db669bd29ce206fc8537c9e9ce0b09fcfe684ec9864736f6c637822302e382e31392d646576656c6f702b636f6d6d69742e63383866343066642e6d6f640053",
	"linkReferences": {},
	"deployedLinkReferences": {}
}